:020000040800F2
:10000000F0060020B50100086D190008DD12000897
:1000100069190008BD0200088119000800000000ED
:10002000000000000000000000000000751900083A
:10003000C1020008000000007119000879190008C9
:10004000CF010008CF010008CF010008CF01000850
:10005000CF010008CF010008CF010008CF01000840
:10006000CF010008CF010008CF010008CF01000830
:10007000CF010008CF010008CF010008CF01000820
:10008000CF010008CF010008CF010008CF01000810
:10009000CF010008CF010008CF010008CF01000800
:1000A000CF010008CF010008CF010008CF010008F0
:1000B000CF010008CF010008CF010008CF010008E0
:1000C000CF010008CF010008CF010008CF010008D0
:1000D000CF010008CF010008CF010008CF010008C0
:1000E000CF010008CF010008CF01000800F002F89E
:1000F00000F050F814A696E8000CB244B344DA4578
:1001000001D100F047F8BAE80F000FA696E83000DA
:10011000A5EB040504EB0607AAEB0704A7F101070A
:100120004FEA15154FEA3414A4F10104AC4201D38F
:1001300000F030F813F0010F18BFFB1A43F0010371
:1001400000F001F8DBE718474420000064200000BD
:10015000103A24BF78C878C1FAD8520724BF30C8F3
:1001600030C144BF04680C60704700007047000055
:100170000023002400250026103A28BF78C1FBD8B0
:10018000520728BF30C148BF0B6070471FB51FBD65
:1001900010B510BD00F058F81146FFF7F7FF01F059
:1001A00041FC00F076F803B4FFF7F2FF03BC00F067
:1001B0007DF800000948804709480047FEE7FEE750
:1001C000FEE7FEE7FEE7FEE7FEE7FEE7FEE7FEE707
:1001D00004480549054A064B704700007D19000890
:1001E000ED000008F0000020F0060020F0020020E2
:1001F000F00200204FF0000200B5134694469646E8
:10020000203922BFA0E80C50A0E80C50B1F1200129
:10021000BFF4F7AF090728BFA0E80C5048BF0CC0D7
:100220005DF804EB890028BF40F8042B08BF704735
:1002300048BF20F8022B11F0804F18BF00F8012BA7
:100240007047704770477047754600F02BF8AE4610
:1002500005006946534620F00700854618B020B5D2
:10026000FFF7B6FFBDE820404FF000064FF0000753
:100270004FF000084FF0000BAC46ACE8C009ACE80A
:10028000C009ACE8C009ACE8C00921F007018D46FF
:10029000704710B50446AFF300802046BDE810401B
:1002A000FFF781BF00487047100000200149182067
:1002B000ABBEFEE72600020070470000FEE700002C
:1002C00070470000B0B5044600F018F9054640F24A
:1002D0000000C2F200000078611C18BF044400BF97
:1002E00000F00CF9401BA042FAD3B0BD2DE9F04F4D
:1002F00082B00E68002E00F0FD8041F20042C4F290
:100300000102042340F2004E904208BF03234FF63F
:10031000FF7CC4F2010E009300240123C1F2100CF3
:100320004FF0000A4FF000094BE000BF41F200021D
:10033000C4F20102009F904208BF022704F00C03A0
:100340000F229A402BEA020207FA03F34FEA9A05BA
:100350001A4346F825204E6840F20C45F202DEF8BA
:10036000082054BF22EA080242EA0802C4F201054A
:10037000CEF808202A68B30254BF22EA080242EAF3
:1003800008022A60B303DEF8042054BF22EA080200
:1003900042EA0802F303CEF80420DEF800204FF012
:1003A000010354BF22EA080242EA0802CEF8002004
:1003B0000E680AF1010A36FA0AF204F1040400F0A8
:1003C000998003FA0AFB16EA0B08F1D04E686645DD
:1003D00012DC122E56D8DFE806F0350B4D49555584
:1003E000555555555555555555555545510000BF11
:1003F000D1F80C9046E000BF4FF6FF72C1F2210227
:1004000096420FDC0022C1F2110296421AD000225D
:10041000C1F21202964215D00022C1F22102964288
:1004200010D02FE00022C1F2220296420AD0002210
:10043000C1F23102964205D00022C1F23202964248
:1004400020D100BF8A684AB1012A14BFC0F814B095
:10045000C0F810B04FF0080914E000BF4FF00409D5
:1004600010E000BFCA6802F104090BE04FF0000978
:1004700008E000BFCA6802F1080903E0CA6802F197
:100480000C0900BF02462646B8F5807F24BF04321F
:10049000203E17680F25B54027EA050509FA06F63C
:1004A00035431560CA79D2067FF582AF41F2180351
:1004B000C4F202031A68AEF57E7642F001021A60B9
:1004C0001A6802F001020192019A2AF0030256F81A
:1004D00002B040F60002C4F20102904208D040F699
:1004E0000042C4F2010290427FF420AF012725E7C9
:1004F000002723E702B0BDE8F08F000040F2E800DB
:10050000C2F2000000687047002804BF0120704755
:10051000F0B581B0044690F83D0028B9002084F879
:100520003C00204600F0F8FA242084F83D002068C2
:10053000016821F001010160016841F4004101609E
:10054000016821F40041016000F09EFC636848F2FC
:10055000A16CC0F2010C40F60011C0F23D016345F0
:100560003CBF48F28041C0F21E01884202D2012005
:1005700001B0F0BD4DF68361C4F21B31A0FB011246
:100580002168970CD1F804E04FF496762EF03F05E1
:1005900045EA92454D60774348F638160D6AC0F239
:1005A0004106A7FB067625F03F07634538BF960C4A
:1005B000721C3A430A62CA6948F2A0664CF6FF7799
:1005C000C0F20106B34222EA07020BD801385B00F1
:1005D000B0FBF3F001306FF31F30042898BF042004
:1005E0001BE000BFA768013857B119277B43B0FB58
:1005F000F3F001306FF31F3070B100F5804007E079
:1006000003EB4303B0FBF3F001306FF31F3018B17D
:1006100000F5004001E000BF01201043C8610868F8
:10062000D4E9072320F0C00010431843086088680D
:1006300048F2FF3204F10C0790438CCF184310436B
:10064000A6698860C86820F0FF0038433043C8605E
:10065000086840F00100086000202021206484F830
:100660003D10206384F83E0001B0F0BD2DE9F04F4D
:1006700085B004460020994616460F460490FFF7C1
:100680003DFF94F83D10202927D10546206800BF82
:10069000816989071CD5FFF731FF411B20681A29A2
:1006A000F6D381698907F3D500202021206384F8DF
:1006B0003D1084F83E00206C04F13C0A40F020001C
:1006C0002064022000218AF8001005B0BDE8F08FF8
:1006D000A2461AF83C1F012904D1022005B0BDE84A
:1006E000F08F00BF01228AF800200368DDE90F18AF
:1006F0000E9ADB0703D1036843F00103036003682C
:1007000023F400630360222084F83D00402084F835
:100710003E000020206462626185608D394620853C
:100720000020CFF6FF70E062204632464B46CDE90E
:10073000008500F0D5FD18B1012005B0BDE8F08FAF
:10074000208D022826D001280ED0002838D1002084
:1007500003902068416903918169039103990168BD
:1007600041F40071016037E02068016821F4806184
:100770000160EFF3108072B6002003902068416999
:100780000391816903910399016841F4007101604B
:1007900062B621E02068016841F400610160EFF376
:1007A000108072B60020039020684169039181692E
:1007B00003910399016821F48061016062B60BE046
:1007C0002068016841F48061016000210391416962
:1007D0000391806903900398208D002800F0CE805B
:1007E000042740F208094BF2895BC0F20107C2F20C
:1007F0000009C1F2F84B23260EE000BF1069087013
:10080000606A218D01306062481E2085618D01394A
:100810006185010400F0B28080B203280CD8022860
:100820002CD001284AD1204641462A4600F0F6FF46
:10083000002800F09F807FE7204641462A4600F0CE
:10084000EDFF00287FF478AF2068616A00690870C6
:10085000606A2268411C208D616201382085638DA9
:10086000013B638553695B07D3D580B20328C5D1AB
:10087000106820F480601060C0E700BF2046394651
:1008800000224346009500F077FE00287FF454AF25
:10089000EFF3108072B62068616A026842F4007259
:1008A000026000690870606A218D01306062481E34
:1008B0002085608D0138608562B65BE02046394650
:1008C00000224346009500F057FE00287FF434AF25
:1008D0002068016821F480610160EFF3108072B636
:1008E0002068616A00690870606A218D01300139F1
:1008F00060622185618D01396185D9F80010C908D0
:10090000A1FB0B12110A714304910499013904915E
:10091000049900293ED021684A6952071AD40499E3
:10092000013904910499A9B321684A69520711D485
:10093000049901390491049961B321684A69520705
:1009400008D4049901390491049919B321684A69BA
:100950005207DAD50A6842F400720A600969017028
:10096000606A218D01306062481E2085608D0138EB
:10097000608562B62068616A006940E7202084F8DB
:100980003D00002084F83E0000218AF8001005B0E8
:10099000BDE8F08F00202021206384F83D1084F80A
:1009A0003E00206C40F02000206462B6012000214F
:1009B0008AF8001005B0BDE8F08F00002DE9F04383
:1009C00083B0994616460F460446FFF797FD94F804
:1009D0003D10202924D10546206800BF8169890780
:1009E0001AD5FFF78BFD411B20681A29F6D38169C0
:1009F0008907F3D500202021206384F83D1084F876
:100A00003E00216C41F02001216484F83C0002206A
:100A100003B0BDE8F08300BF94F83C10012903D176
:100A2000022003B0BDE8F083012284F83C20036873
:100A3000DDE90B180A9ADB0703D1036843F00103D1
:100A40000360036823F400630360212084F83D0001
:100A5000402084F83E000020206462626185608D41
:100A6000394620850020CFF6FF70E06220463246EE
:100A70004B46CDE9008500F0BDFC18B1012003B064
:100A8000BDE8F083208D98B9204641462A4600F003
:100A900015FD88B3206C0428F0D12068016841F46A
:100AA00000710160012003B0BDE8F0830004EBD0C9
:100AB000204641462A4600F0F9FE0028EAD1616A44
:100AC0002268084610F8013B1361238D6062581EAE
:100AD0002085678D013F678557697F07E6D5070445
:100AE000E4D048781061881C6062981E2085618D72
:100AF00001396185DAE700BF2068016841F40071BF
:100B00000160202084F83D00002084F83E0084F835
:100B10003C0003B0BDE8F08310B586B0016845F233
:100B20000040C4F2000081424FF00001CDE9041101
:100B3000CDE9021102D006B010BD00BF41F2180489
:100B4000C4F20204216800F5384041F00801216038
:100B5000216801F0080101910199C021029112213F
:100B600003910321059102A9FFF7C0FB606840F4DF
:100B700000106060606800F400100190019806B0F9
:100B800010BD000040F2000040F2E801C2F2000097
:100B9000C2F2000100780A68104408607047000043
:100BA00080B542F20000C4F20200016841F0100179
:100BB0000160032000F07AF80F2000F005F800F043
:100BC00027F8002080BD000070B540F20006C2F298
:100BD000000640F208013278C2F200014FF47A7345
:100BE0000968B3FBF2F20446B1FBF2F1084600F0EB
:100BF0005FFB0F2C4FF0010508D838B94FF0FF30DC
:100C000021460022002500F025F87460284670BDBA
:100C100082B041F21800C4F202000168022241F0E1
:100C200001010160016801F0010101910199416830
:100C300041F080514160406800F080500090009881
:100C40000420C4F20100016862F31A61016002B07D
:100C50007047000010B54EF60C5CCEF2000CDCF8CC
:100C60000030C3F3022E8EF00704042C28BF0424A6
:100C7000BEF103034FF0FF3E0EFA04F438BF002329
:100C8000A14399400EFA03F39A43114300F00F0277
:100C900000F160430901043A03F56443624400280B
:100CA00048BF02F10C03197010BD00004EF60C5144
:100CB000CEF200010A684FF6FF031A4060F30A22E1
:100CC00042F0806040F0FD7008607047002804BF6B
:100CD000012070472DE9F04381B042F20008C4F2D0
:100CE00002080446D8F800000D4600F007008842CC
:100CF0000CD2D8F8000020F007002843C8F8000004
:100D0000D8F8000000F00700A8426CD1206841F23A
:100D100004098107C4F2020917D5410705D5D9F89E
:100D2000001041F4E061C9F80010010705D5D9F8B9
:100D3000001041F46051C9F80010D9F80010A26801
:100D400021F0F0011143C9F80010C00742D1D8F8D2
:100D5000000000F00700A8420CD9D8F8000020F0ED
:100D600007002843C8F80000D8F8000000F007008A
:100D7000A84238D12068410707D5D9F80010E268A9
:100D800021F4E0611143C9F80010000708D5D9F833
:100D90000000216920F4605040EAC100C9F8000059
:100DA000D9F8002002F00C00082841F20020C0F21F
:100DB0007A004DD142F27C13C2F38341C0F60003A6
:100DC000595CD20338D440F60010C0F23D004843CD
:100DD0003EE000BF606859F8041C022808D00128D2
:100DE00026D1890306D4012001B0BDE8F08300BFFD
:100DF0008901F8D5D9F8001021F003010843C9F89A
:100E00000000FFF77BFB064641F28837D9F8000067
:100E1000616800F00C00B0EB810F98D0FFF76EFB1B
:100E2000801BB842F2D9032001B0BDE8F08300BFB7
:100E30008907D8D5DEE700BFD9F8002042F27A133F
:100E4000C2F34042C0F600039A5C4843B0FBF2F0A4
:100E5000D9F8001042F26212C1F30311C0F6000289
:100E6000515C40F2080220FA01F140F20400C2F2A3
:100E700000000068C2F200021160FFF7A5FE00202A
:100E800001B0BDE8F083000040F2080041F2040127
:100E9000C2F20000C4F202010068096842F2721254
:100EA000C1F30221C0F60002515CC8407047000047
:100EB000002804BF012070472DE9F04182B00446AC
:100EC000007841F20006C007C4F202060CD0706838
:100ED00000F00C00042840F081803068800303D5C6
:100EE0006068002800F04681207880071BD5706874
:100EF00010F00C0F09D0706800F00C00082840F0CA
:100F000087807068C00300F183803068800703D554
:100F10002069012840F02E813068616920F0F800D6
:100F200040EAC10030602078000713D420784007E1
:100F30002CD4E569002D00F01881706800F00C00D9
:100F4000082840F0A780012D40F00481012002B064
:100F5000BDE8F081A069002800F084800020C4F280
:100F600042200121C0F88014FFF7C8FA054600BFEF
:100F7000706A800700F1B280FFF7C0FA401B0228B8
:100F8000F6D9032002B0BDE8F08100BFF0695FEA46
:100F9000C00808D4F06940F08050F061F06900F0BA
:100FA00080500090009847F20007C4F200073868AC
:100FB000C00549D4386840F480703860FFF79EFA65
:100FC000054600BF3868C0053ED4FFF797FA401BBE
:100FD0006428F7D9032002B0BDE8F081706800F002
:100FE0000C00082803D17068C0033FF576AF616834
:100FF0003068002900F00C81B1F5A02F00F00081CD
:10100000B1F5803F40F01A8140F480301CE100BF10
:101010002069002840F20000C4F2422000F08880DD
:1010200001210160FFF76AFA054600BF30688007BA
:101030003FF572AFFFF762FA401B0228F6D9032092
:1010400002B0BDE8F08100BFE168306A002900F01D
:101050009D80052900F09280012940F0AF8040F08A
:101060000100B1E00020C4F242200021C0F8801449
:10107000FFF744FA054600BF706A80077FF556AF58
:10108000FFF73CFA401B0228F6D9032002B0BDE866
:10109000F08100BF0027C4F2422700203866FFF726
:1010A0002DFA022D05460DD13068800140F1DE8019
:1010B000FFF724FA401B02284FF00300F4D902B0D6
:1010C000BDE8F081306880014FD5FFF717FA401B6B
:1010D00002284FF00300F5D9F1E700BF40F2080005
:1010E000C2F20000006844F6D351C1F26201A0FBD5
:1010F0000101480A019000BF00BF0198411E00286D
:1011000001913FF413AF00BF0198411E00280191E7
:101110003FF40CAF00BF0198411E002801913FF43D
:1011200005AF00BF0198411E00280191E4D1FDE602
:1011300000210160FFF7E2F9054600BF3068800733
:101140007FF5F1AEFFF7DAF9401B02284FF00300FC
:10115000F4D9B4E77068216A00F480328A4209D178
:10116000616A00F47010884204D1002002B0BDE82A
:10117000F08100BF012002B0BDE8F08140F0040022
:101180003062306A40F001001EE000BF20F0010034
:101190003062306A20F004003062FFF7AFF9054694
:1011A00041F28837306A800720D5FFF7A7F9401B46
:1011B000B8424FF00300F5D981E700BF20F00100ED
:1011C0003062306A20F004003062FFF797F905467C
:1011D00041F28837306A800708D4FFF78FF9401B47
:1011E000B842F7D9032002B0BDE8F081B8F1000F92
:1011F0003FF59FAEF06920F08050F06199E600BFA6
:1012000040F480203060306840F480301CE000BF43
:1012100020F480303060306820F480203060FFF7A8
:101220006DF90546306880037FF55EAEFFF766F91D
:10123000401B64284FF00300F4D940E720F48030CD
:101240003060306820F480203060FFF757F90546A1
:10125000306880033FF548AEFFF750F9401B642823
:10126000F6D9032002B0BDE8F08100BF206AB0F5D6
:10127000803F05D17168A26821F40031114371608B
:101280007168626A21F4741111430843706001208F
:101290003866FFF733F90446306880013FF565AFE3
:1012A000FFF72CF9001B02284FF00300F4D906E7E2
:1012B000411E0020B0EB116F1CBF012070474EF2A1
:1012C0001002CEF2000251604EF62351CEF2000120
:1012D000F0230B700721906011607047FEE700005B
:1012E0002DE9F04782B0044600689A460B9D0A9E9D
:1012F0000368914643F48062026002680F4642F43C
:101300008071016020464FF00111002233460095A4
:1013100000F032F950B120680068C00544BF4FF4B6
:1013200000702064032002B0BDE8F08740F202089C
:101330002068C0F2010807F0FE0707612046414619
:1013400032462B4600F0FEF920B1012002B0BDE884
:10135000F08700BF0020019020682A464169019172
:101360008069314601900198204600F09FFAB0B99B
:101370002068BAF1010F09D04FEA19210161204616
:1013800031462A4600F092FA48B920685FFA89F19E
:101390000161204631462A4600F088FA60B1206C8F
:1013A0000428D2D12068016841F400710160012055
:1013B00002B0BDE8F08700BF206800220168334614
:1013C00041F48071016020464FF00111009500F05A
:1013D000D3F800289FD147F0010C276820464146EA
:1013E00032462B46C7F810C002B0BDE8F04700F007
:1013F000A9B900002DE9F04383B0044600680F4608
:1014000001680A9D0B9E41F48071994690460160E7
:1014100020464FF0011100222B46009600F0ACF858
:1014200050B120680068C00544BF4FF400702064CC
:10143000032003B0BDE8F083206807F0FE010161DE
:101440000221C0F2010120462A46334600F07AF913
:1014500020B1012003B0BDE8F08300BF002002905E
:1014600020683246416902918069294602900298BB
:10147000204600F01BFA58B1206C0428E9D12068FE
:10148000016841F400710160012003B0BDE8F08300
:101490002068B9F1010F0AD04FEA182101612046F6
:1014A0002946324600F002FA0028E5D120685FFAAA
:1014B00088F10161002003B0BDE8F08370B50368D6
:1014C000044653F8140F400711D40E46481C29D087
:1014D00086BB00BF1868400527D4FFF70FF82368C4
:1014E00053F8140F400737D518684007F2D500208D
:1014F00070BD00BF18684007F9D41868400514D4BF
:1015000018684007F3D4186840050ED418684007DF
:10151000EDD41868400508D4186840074FF0000063
:1015200048BF70BD18684005E4D56FF4806018604E
:10153000042012E0154603E053F8140F4007D6D4F8
:1015400018684005F1D4FEF7D9FF401B2368B0426C
:10155000F2D958694007EFD42020002120222163CE
:1015600084F83D2084F83E10226C10432064012052
:1015700084F83C1070BD00002DE9F041054600687C
:101580001E46144601F47F0201338FB242D0DDF8CB
:101590001880B2F5803F40F0878040693840C01B1A
:1015A000B0FA80F04009A04240F0C8804EB924E073
:1015B00040693840C01BB0FA80F04009A04240F0BA
:1015C000BD80FEF79BFFA0EB08012868B142EFD970
:1015D00041693940C91BB1FA81F14909A142E7D1FA
:1015E0009BE000BF40693840C01BB0FA80F0400962
:1015F000A0424FF0000040F0A280FEF77FFF286875
:1016000041693940C91BB1FA81F14909A142E9D1C7
:1016100083E000BFB2F5803F24D100BF416939406B
:10162000C91BB1FA81F14909A14240F087804169A3
:101630003940C91BB1FA81F14909A14240F07E80CD
:1016400041693940C91BB1FA81F14909A14275D1FB
:1016500041693940C91BB1FA81F14909A142DDD084
:101660006CE000BF81693940C91BB1FA81F14909B9
:10167000A14263D181693940C91BB1FA81F149099D
:10168000A1425BD181693940C91BB1FA81F1490995
:10169000A14253D181693940C91BB1FA81F149098D
:1016A000A142DFD04AE000BF80693840C01BB0FAD9
:1016B00080F04009A04241D146B923E0806938401A
:1016C000C01BB0FA80F04009A04237D1FEF716FFE8
:1016D000A0EB08012868B142F0D981693940C91BE3
:1016E000B1FA81F14909A142E8D116E08069384098
:1016F000C01BB0FA80F04009A0424FF0000018BFB4
:10170000BDE8F081FEF7FAFE286881693940C91BFF
:10171000B1FA81F14909A142E8D1002020212863D2
:1017200085F83D1085F83E00296C41F020012964C0
:1017300085F83C000120BDE8F08100BF0020BDE835
:10174000F0810000F0B581B0044600681D46436991
:101750008FB203EA0701B94202D1002001B0F0BD07
:101760004169164601323CD0490512D47EB300BF10
:10177000FEF7C4FE411B2068B14203D941693940DC
:10178000B9422BD141693940B942E6D04169490596
:10179000EED5016841F4007101606FF48061416130
:1017A000042000212022216384F83D2084F83E108B
:1017B000226C1043206484F83C10012001B0F0BD7D
:1017C00041693940B942C8D041694905E1D4FEF7C1
:1017D00095FE206841693940B942F1D02020E0E708
:1017E00041694905D5D441693940B942B5D041690B
:1017F0004905CED441693940B942AED04169490565
:10180000C7D441693940B942A7D041694905C0D41C
:1018100041693940B942E3D19FE7000070B5044601
:101820000068154650F8143F5A063DD40E4629B9B3
:1018300026E000BF50F8141F490635D40168C906D8
:1018400021D4FEF75BFE411B2068B142F2D9416909
:101850004906EFD400202021206384F83D1084F84D
:101860003E00206C40F0200018E000BFFEF746FE6E
:10187000206850F8141F4906ECD50168490613D4B6
:101880000168C906F2D56FF0100101600020202127
:10189000206384F83D1084F83E00206C2064002012
:1018A00084F83C00012070BD002070BD70B5036855
:1018B000044653F8140F000611D40E46481C29D0D4
:1018C00086BB00BF1868400527D4FEF717FE2368C3
:1018D00053F8140F000637D518680006F2D500201B
:1018E00070BD00BF18680006F9D41868400514D40C
:1018F00018680006F3D4186840050ED4186800066E
:10190000EDD41868400508D4186800064FF00000B0
:1019100048BF70BD18684005E4D56FF4806018605A
:10192000042012E0154603E053F8140F0006D6D445
:1019300018684005F1D4FEF7E1FD401B2368B04272
:10194000F2D958690006EFD420200021202221631B
:1019500084F83D2084F83E10226C1043206401205E
:1019600084F83C1070BD0000FEE70000FEE70000B8
:101970007047000070470000FFF704B9704700008F
:10198000FEE700002DE9F04184B001260DF10F00C3
:10199000CDE9000640F27000C2F2000000F124041C
:1019A0004FF47A752046D021752201230295FEF767
:1019B0005DFE9DF80F00682830D14FF000080DF152
:1019C0000E072046D0216B2201238DF80E80CDE931
:1019D00000760295FEF7F2FF07208DF80E002046F4
:1019E000D02119220123CDE900760295FEF7E6FF0A
:1019F0002046D0211B2201238DF80E80CDE90076F0
:101A00000295FEF7DBFF2046D0211C2201238DF832
:101A10000E80CDE900760295FEF7D0FF04B0BDE858
:101A2000F081000094B0FFF7BBF80AAF381D242105
:101A3000FEF7E0FB02200A9001200E9010200F908C
:101A4000002438461194FFF733FA28B1EFF31080E1
:101A500072B600BFFEE700BF0F20CDE9050405A860
:101A60000021CDE907440994FFF730F920B1EFF3E5
:101A7000108072B6FEE700BF41F21800C4F2020007
:101A8000016840F2700A41F0040101600168C2F28D
:101A9000000A01F004010A910A990168002241F04C
:101AA00008010160006845F2004100F008000A905A
:101AB0000A98C4F20001504640F8241F48F2A06181
:101AC000C0F201014FF48043C0E90112C0E90323D1
:101AD000C0E90522C0E90722FEF716FD20B1EFF3A9
:101AE000108072B6FEE700BFFFF74CFF40F200091E
:101AF0000AF124004FF0060BC3F61079049000BFE2
:101B0000049CD02120463B2201234FF47A75CDE975
:101B1000007B0295FEF7AAFDBDF82800BDF82A80DB
:101B200001BA090CAAF8061098FA88F1BDF82C60E1
:101B3000090CAAF8081031BA090CC0BAAAF80A10A0
:101B400000F0F4F900224B4600F008FA00F060F8CB
:101B5000CAF8180098FAB8F000F0E8F900224B46ED
:101B600000F0FCF900F054F8CAF81C00F0BA00F0DC
:101B7000DDF900224B4600F0F1F900F049F8CAF80F
:101B800020002046D02143220123CDE9007B02958D
:101B9000FEF76CFDBDF828003D4601BABDF82A707D
:101BA000090CAAF8001039BABDF82C60090CAAF883
:101BB000021031BA090CC0BAAAF8041000F0B6F944
:101BC00046F20004C4F260040022234600F052F8FA
:101BD00000F01EF8CAF80C00F8BA2F4600F0A6F97B
:101BE0000022234600F046F800F012F8CAF8100070
:101BF000F0BA00F09BF90022234600F03BF800F019
:101C000007F8CAF814006420FEF75CFB78E70000D0
:101C100021F0004201F00043A2F16052B2F5801FB2
:101C200028BFD2F17F6C0BD95FEA001C43EAC202E5
:101C300042EB507018BF704728BF20F0010070477A
:101C4000B2F5801FBCBF184670474FEA410C1CF527
:101C5000001F02D2084600F07FBA70B500F028FAE3
:101C600000000089FFF7F6BF4FF00040A0F58000AC
:101C7000704700002DE9C04130B4DFF8A8C23CEA4B
:101C8000111418BF3CEA131400F0F0801CEA111480
:101C900081EA030544EAD57418BF1CEA131500F065
:101CA000CB80A4EB050404F17F7404F500344FF0FD
:101CB000004545EAC12145EAC32341EA505143EAC0
:101CC00052534FEAC0204FEAC222994208BF9042C5
:101CD00000F0A0804FEA13650FF24816765D4FEAD8
:101CE000134506FB05F7C7F1807706FB07F74FEAB8
:101CF000D737A7FB03687642A7FB06CEC8F5803826
:101D000038BFA8F1010807FB08E6A6FB028C4FF0DC
:101D1000000EE6FB03CED8F100086FEA0C0C5CF174
:101D2000000C6FEA0E0E4EF1004EA6FB0C584FF061
:101D30000007E6FB0E87A1FB08C6A0FB07CE16EB4B
:101D40000E064FF0000545F10005E1FB076515F1B2
:101D5000E04E7EBFA4F580345FEA46066D4116F181
:101D6000800745F100054FEA172747EA05674FEA64
:101D700015254FEA0666A6F1DE46B6F1805F20D94A
:101D8000384605EBC47124F0010C01EB0C11BCF1D9
:101D9000FE6F02D8F0BCBDE8008124425CBF01F5B3
:101DA000801E9EEAC47F02D4F0BCBDE800812442BC
:101DB00000F13980A1F1C041F0BCBDE8004100F064
:101DC000C5B94FEAD02040EA41504FEAD1214FEA4D
:101DD000D22242EA43524FEAD323A7FB028607FBF3
:101DE000036605FB02661EEA0E0F58BFA6EB0056FF
:101DF000B6EB00564FEA520E4EEAC37E18EB0E0EBB
:101E000056EB530EBCD518EB02085E417F1C55F112
:101E10000005B5E74FF480154FF000074FF00006BE
:101E20004FF00008ACE701F1C04101F000414FF074
:101E30000000F0BCBDE800810CEA131511EA0C1F8C
:101E400000D00CE013EA0C1F00F025804FF00000DA
:101E500081EA030101F00041F0BCBDE80081F0BC63
:101E6000BDE8004181EA030100F070B9F0BCBDE8B3
:101E7000004170B500F01CF9097EFC3E00F007B887
:101E80004FF0000081EA030101F00041704781EA50
:101E9000030100F05BB9F0BCBDE8004122494FF0FE
:101EA00000007047FFFDFBF9F7F5F4F2F0EEEDEB03
:101EB000E9E8E6E4E3E1E0DEDDDBDAD8D7D5D4D348
:101EC000D1D0CFCDCCCBCAC8C7C6C5C4C2C1C0BF94
:101ED000BEBDBCBBBAB9B8B7B6B5B4B3B2B1B0AF9A
:101EE000AEADACABAAA9A8A8A7A6A5A4A3A3A2A17E
:101EF000A09F9F9E9D9C9C9B9A9999989797969539
:101F000095949393929191908F8F8E8E8D8C8C8BD4
:101F10008B8A89898888878786858584848383825C
:101F2000828181800000FF070000F87F10F00042EE
:101F300048BF4042B0FA80F310FA03F10AD0C3F16F
:101F40001D0303F5806302EB03524FEA415002EB9D
:101F5000D12170474FF000007047000070B5DFF8E6
:101F600048C11CEA111E1EBF1CEA13159EEA0C0F85
:101F700095EA0C0F00F06F8081EA03044EEAD47EEC
:101F8000AE4421EA4C1123EA4C1341F4801143F48E
:101F90008013AEF17F7EA1FB024CA0FB03653619D6
:101FA00055EB0C05A1FB034C4CF10003A0FB021CFC
:101FB00016EB0C06654153F10003094218BF46F0C9
:101FC000010613F4007F0BD14FEA03314FEA0530CD
:101FD00041EA155140EA165034036FF003020AE05B
:101FE0004FEAC3214FEAC52041EA555140EA565015
:101FF000F4026FF0020202EB2E4201EB025585EA79
:10200000CE710AD05FEA440C18BF24F0004450F1AE
:10201000000041F1000120EAD47040F2FE7C6245EC
:1020200000D270BDA84214BF4FF080444FF040442E
:10203000002E08BF0024BEF1806FA8BFA1F1C041EF
:10204000BDE8704080F2828001F1C04101F00041A2
:102050004FF0000070470CEA13159EEA0C0F18BFF2
:1020600095EA0C0F06D081EA030E4FF000000EF047
:10207000004170BD00F01CF88900013E00F007B877
:1020800000F009B84FEA430C5FEA5C5C08D081EAD3
:10209000030100F05BB84FEA410C5FEA5C5CF6D1EB
:1020A00002494FF0000070470000FF070000F87F72
:1020B0000EF1020E2EF0030E5EF8046B364205D4CC
:1020C000012A43EB030515F5001F12D8012841EB47
:1020D000010C1CF5001F0CD80ED14FEAD17C0CEB83
:1020E0004C0C0CF1020C15F5001F08BF4CEBD37C17
:1020F00004E04FF0080C01E04FEAD37C0CEB4C05F8
:1021000026FA05F606F00706B6F1040C06D20EEB29
:10211000860CBDE870404CF0010C6047DFE80CF025
:10212000090B02024FF00041A1F500214FF0000021
:1021300070BD19461046012851EB010418BFD4F5B3
:10214000001484BF002001F0004170BD0808A0F514
:1021500000114FEA31017047FF2141EAD050C0051C
:1021600070470000000000000000010203040607A1
:102170000809000000000102030401020203040533
:10218000060708090A0B0C0D0E0F1010B0210008ED
:10219000000000201000000050010008C0210008CD
:1021A00010000020E00600007001000800000000A0
:1021B000010000001000000000127A000000000082
:04000005080000ED02
:00000001FF
